{
  "contractName": "Healthcare",
  "abi": [
    {
      "inputs": [],
      "payable": false,
      "stateMutability": "nonpayable",
      "type": "constructor"
    },
    {
      "anonymous": false,
      "inputs": [
        {
          "indexed": false,
          "internalType": "uint256",
          "name": "id",
          "type": "uint256"
        },
        {
          "indexed": false,
          "internalType": "string",
          "name": "name",
          "type": "string"
        },
        {
          "indexed": false,
          "internalType": "uint256",
          "name": "age",
          "type": "uint256"
        },
        {
          "indexed": false,
          "internalType": "uint256",
          "name": "price",
          "type": "uint256"
        },
        {
          "indexed": false,
          "internalType": "address payable",
          "name": "owner",
          "type": "address"
        },
        {
          "indexed": false,
          "internalType": "bool",
          "name": "transfered",
          "type": "bool"
        }
      ],
      "name": "PatientCreated",
      "type": "event"
    },
    {
      "anonymous": false,
      "inputs": [
        {
          "indexed": false,
          "internalType": "uint256",
          "name": "id",
          "type": "uint256"
        },
        {
          "indexed": false,
          "internalType": "string",
          "name": "name",
          "type": "string"
        },
        {
          "indexed": false,
          "internalType": "uint256",
          "name": "age",
          "type": "uint256"
        },
        {
          "indexed": false,
          "internalType": "uint256",
          "name": "price",
          "type": "uint256"
        },
        {
          "indexed": false,
          "internalType": "address payable",
          "name": "owner",
          "type": "address"
        },
        {
          "indexed": false,
          "internalType": "bool",
          "name": "transfered",
          "type": "bool"
        }
      ],
      "name": "PatientTransfered",
      "type": "event"
    },
    {
      "constant": true,
      "inputs": [],
      "name": "name",
      "outputs": [
        {
          "internalType": "string",
          "name": "",
          "type": "string"
        }
      ],
      "payable": false,
      "stateMutability": "view",
      "type": "function"
    },
    {
      "constant": true,
      "inputs": [],
      "name": "patientCount",
      "outputs": [
        {
          "internalType": "uint256",
          "name": "",
          "type": "uint256"
        }
      ],
      "payable": false,
      "stateMutability": "view",
      "type": "function"
    },
    {
      "constant": true,
      "inputs": [
        {
          "internalType": "uint256",
          "name": "",
          "type": "uint256"
        }
      ],
      "name": "patients",
      "outputs": [
        {
          "internalType": "uint256",
          "name": "id",
          "type": "uint256"
        },
        {
          "internalType": "string",
          "name": "name",
          "type": "string"
        },
        {
          "internalType": "uint256",
          "name": "age",
          "type": "uint256"
        },
        {
          "internalType": "uint256",
          "name": "price",
          "type": "uint256"
        },
        {
          "internalType": "address payable",
          "name": "owner",
          "type": "address"
        },
        {
          "internalType": "bool",
          "name": "transfered",
          "type": "bool"
        }
      ],
      "payable": false,
      "stateMutability": "view",
      "type": "function"
    },
    {
      "constant": false,
      "inputs": [
        {
          "internalType": "string",
          "name": "_name",
          "type": "string"
        },
        {
          "internalType": "uint256",
          "name": "_age",
          "type": "uint256"
        },
        {
          "internalType": "uint256",
          "name": "_price",
          "type": "uint256"
        }
      ],
      "name": "createPatient",
      "outputs": [],
      "payable": false,
      "stateMutability": "nonpayable",
      "type": "function"
    },
    {
      "constant": false,
      "inputs": [
        {
          "internalType": "uint256",
          "name": "_id",
          "type": "uint256"
        }
      ],
      "name": "transferPatient",
      "outputs": [],
      "payable": true,
      "stateMutability": "payable",
      "type": "function"
    }
  ],
  "bytecode": "0x6080604052600060015534801561001557600080fd5b506040518060400160405280601681526020017f4865616c746863617265204170706c69636174696f6e0000000000000000000081525060009080519060200190610061929190610067565b5061010c565b828054600181600116156101000203166002900490600052602060002090601f016020900481019282601f106100a857805160ff19168380011785556100d6565b828001600101855582156100d6579182015b828111156100d55782518255916020019190600101906100ba565b5b5090506100e391906100e7565b5090565b61010991905b808211156101055760008160009055506001016100ed565b5090565b90565b610c4f8061011b6000396000f3fe60806040526004361061004a5760003560e01c806306fdde031461004f5780634d7c8099146100df5780637f15546e1461010d57806393119a83146101e9578063a0303c41146102f0575b600080fd5b34801561005b57600080fd5b5061006461031b565b6040518080602001828103825283818151815260200191508051906020019080838360005b838110156100a4578082015181840152602081019050610089565b50505050905090810190601f1680156100d15780820380516001836020036101000a031916815260200191505b509250505060405180910390f35b61010b600480360360208110156100f557600080fd5b81019080803590602001909291905050506103b9565b005b34801561011957600080fd5b506101e76004803603606081101561013057600080fd5b810190808035906020019064010000000081111561014d57600080fd5b82018360208201111561015f57600080fd5b8035906020019184600183028401116401000000008311171561018157600080fd5b91908080601f016020809104026020016040519081016040528093929190818152602001838380828437600081840152601f19601f82011690508083019250505050505050919291929080359060200190929190803590602001909291905050506107e8565b005b3480156101f557600080fd5b506102226004803603602081101561020c57600080fd5b8101908080359060200190929190505050610a20565b60405180878152602001806020018681526020018581526020018473ffffffffffffffffffffffffffffffffffffffff1673ffffffffffffffffffffffffffffffffffffffff16815260200183151515158152602001828103825287818151815260200191508051906020019080838360005b838110156102b0578082015181840152602081019050610295565b50505050905090810190601f1680156102dd5780820380516001836020036101000a031916815260200191505b5097505050505050505060405180910390f35b3480156102fc57600080fd5b50610305610b21565b6040518082815260200191505060405180910390f35b60008054600181600116156101000203166002900480601f0160208091040260200160405190810160405280929190818152602001828054600181600116156101000203166002900480156103b15780601f10610386576101008083540402835291602001916103b1565b820191906000526020600020905b81548152906001019060200180831161039457829003601f168201915b505050505081565b6103c1610b27565b600260008381526020019081526020016000206040518060c001604052908160008201548152602001600182018054600181600116156101000203166002900480601f0160208091040260200160405190810160405280929190818152602001828054600181600116156101000203166002900480156104825780601f1061045757610100808354040283529160200191610482565b820191906000526020600020905b81548152906001019060200180831161046557829003601f168201915b5050505050815260200160028201548152602001600382015481526020016004820160009054906101000a900473ffffffffffffffffffffffffffffffffffffffff1673ffffffffffffffffffffffffffffffffffffffff1673ffffffffffffffffffffffffffffffffffffffff1681526020016004820160149054906101000a900460ff1615151515815250509050600081608001519050600082600001511180156105355750600154826000015111155b61053e57600080fd5b816060015134101561054f57600080fd5b8160a001511561055e57600080fd5b3373ffffffffffffffffffffffffffffffffffffffff168173ffffffffffffffffffffffffffffffffffffffff16141561059757600080fd5b33826080019073ffffffffffffffffffffffffffffffffffffffff16908173ffffffffffffffffffffffffffffffffffffffff168152505060018260a0019015159081151581525050816002600085815260200190815260200160002060008201518160000155602082015181600101908051906020019061061a929190610b75565b50604082015181600201556060820151816003015560808201518160040160006101000a81548173ffffffffffffffffffffffffffffffffffffffff021916908373ffffffffffffffffffffffffffffffffffffffff16021790555060a08201518160040160146101000a81548160ff0219169083151502179055509050508073ffffffffffffffffffffffffffffffffffffffff166108fc349081150290604051600060405180830381858888f193505050501580156106df573d6000803e3d6000fd5b507ff6713a5f05881b6d865099784a050a41243d5d73f7f16295bee790f0b25076a260015483602001518460400151856060015133600160405180878152602001806020018681526020018581526020018473ffffffffffffffffffffffffffffffffffffffff1673ffffffffffffffffffffffffffffffffffffffff16815260200183151515158152602001828103825287818151815260200191508051906020019080838360005b838110156107a4578082015181840152602081019050610789565b50505050905090810190601f1680156107d15780820380516001836020036101000a031916815260200191505b5097505050505050505060405180910390a1505050565b60008351116107f657600080fd5b6000811161080357600080fd5b6000821161081057600080fd5b6001600081548092919060010191905055506040518060c0016040528060015481526020018481526020018381526020018281526020013373ffffffffffffffffffffffffffffffffffffffff168152602001600015158152506002600060015481526020019081526020016000206000820151816000015560208201518160010190805190602001906108a5929190610b75565b50604082015181600201556060820151816003015560808201518160040160006101000a81548173ffffffffffffffffffffffffffffffffffffffff021916908373ffffffffffffffffffffffffffffffffffffffff16021790555060a08201518160040160146101000a81548160ff0219169083151502179055509050507fdcd928503ebf9caa08c6e42954c1f8453955acd394f885b2c1de5639a55a2c7960015484848433600060405180878152602001806020018681526020018581526020018473ffffffffffffffffffffffffffffffffffffffff1673ffffffffffffffffffffffffffffffffffffffff16815260200183151515158152602001828103825287818151815260200191508051906020019080838360005b838110156109dc5780820151818401526020810190506109c1565b50505050905090810190601f168015610a095780820380516001836020036101000a031916815260200191505b5097505050505050505060405180910390a1505050565b6002602052806000526040600020600091509050806000015490806001018054600181600116156101000203166002900480601f016020809104026020016040519081016040528092919081815260200182805460018160011615610100020316600290048015610ad25780601f10610aa757610100808354040283529160200191610ad2565b820191906000526020600020905b815481529060010190602001808311610ab557829003601f168201915b5050505050908060020154908060030154908060040160009054906101000a900473ffffffffffffffffffffffffffffffffffffffff16908060040160149054906101000a900460ff16905086565b60015481565b6040518060c0016040528060008152602001606081526020016000815260200160008152602001600073ffffffffffffffffffffffffffffffffffffffff1681526020016000151581525090565b828054600181600116156101000203166002900490600052602060002090601f016020900481019282601f10610bb657805160ff1916838001178555610be4565b82800160010185558215610be4579182015b82811115610be3578251825591602001919060010190610bc8565b5b509050610bf19190610bf5565b5090565b610c1791905b80821115610c13576000816000905550600101610bfb565b5090565b9056fea265627a7a72315820befe8b3938c42a57d6a0847ab455d552b048657d38d72526d48be44440d1141964736f6c63430005100032",
  "source": "pragma solidity ^0.5.0;\n\ncontract Healthcare {\n\tstring public name;\n\tuint public patientCount = 0;\n\tmapping(uint => Patient) public patients;\n\n\tstruct Patient {\n\t\tuint id;\n\t\tstring name;\n\t\tuint age;\n\t\tuint price;\n\t\taddress payable owner;\n\t\tbool transfered;\n\t}\n\n\tevent PatientCreated(\n\t\tuint id,\n\t\tstring name,\n\t\tuint age,\n\t\tuint price,\n\t\taddress payable owner,\n\t\tbool transfered\n\t);\n\n\tevent PatientTransfered(\n\t\tuint id,\n\t\tstring name,\n\t\tuint age,\n\t\tuint price,\n\t\taddress payable owner,\n\t\tbool transfered\n\t);\n\n\n\tconstructor() public {\n\t\tname = \"Healthcare Application\";\n\t}\n\n\tfunction createPatient(string memory _name, uint _age, uint _price) public {\n\t\t//Require a valid name\n\t\trequire(bytes(_name).length > 0);\n\n\t\t//Require a valid price\n\t\trequire(_price > 0);\n\n\t\t//Require a valid age\n\t\trequire(_age > 0);\n\n\t\t//Make sure parameters are correct\n\t\t//Increment Patient Count\n\t\tpatientCount ++;\n\n\t\t//Create the patient\n\t\tpatients[patientCount] = Patient(patientCount, _name, _age, _price, msg.sender, false);\n\t\t//Trigger an event\n\t\temit PatientCreated(patientCount, _name, _age, _price, msg.sender, false);\n\t}\n\n\tfunction transferPatient(uint _id) public payable {\n\t\t// Fetch the patient\n\t\tPatient memory _patient = patients[_id];\n\t\t\n\t\t// Fetch the owner\n\t\taddress payable _provider = _patient.owner;\n\n\t\t// Make sure patient has valid id\n\t\trequire(_patient.id > 0 && _patient.id <= patientCount);\n\n\t\t// Require there is enough Ether in the transaction\n\t\trequire(msg.value >= _patient.price);\n\n\t\t// Required that the patient not be transfered already\n\t\trequire(!_patient.transfered);\n\n\t\t// Require that receiver is not the provider\n\t\trequire(_provider != msg.sender);\n\t\t\n\t\t// Transfer ownership\n\t\t_patient.owner = msg.sender;\n\n\t\t// Mark as transfered\n\t\t_patient.transfered = true;\n\n\t\t// Update the patient\n\t\tpatients[_id] = _patient;\n\n\t\t// Pay the money to the sender\n\t\taddress(_provider).transfer(msg.value);\n\n\t\t// Trigger an event\n\t\temit PatientTransfered(patientCount, _patient.name, _patient.age, _patient.price, msg.sender, true);\n\t}\n}",
  "sourcePath": "/Users/raw/Downloads/renjie_innovation/src/contracts/Healthcare.sol",
  "compiler": {
    "name": "solc",
    "version": "0.5.16+commit.9c3226ce.Emscripten.clang"
  },
  "schemaVersion": "3.4.3",
  "updatedAt": "2022-04-27T01:07:04.378Z",
  "networkType": "ethereum",
  "devdoc": {
    "methods": {}
  },
  "userdoc": {
    "methods": {}
  }
}